{
  "_format": "hh-sol-artifact-1",
  "contractName": "Escrow",
  "sourceName": "contracts/Escrow.sol",
  "abi": [
    {
      "inputs": [],
      "stateMutability": "nonpayable",
      "type": "constructor"
    },
    {
      "anonymous": false,
      "inputs": [],
      "name": "Approve",
      "type": "event"
    },
    {
      "anonymous": false,
      "inputs": [
        {
          "indexed": false,
          "internalType": "bool",
          "name": "requested",
          "type": "bool"
        }
      ],
      "name": "BreakUpEvent",
      "type": "event"
    },
    {
      "anonymous": false,
      "inputs": [],
      "name": "Canceled",
      "type": "event"
    },
    {
      "anonymous": false,
      "inputs": [
        {
          "indexed": false,
          "internalType": "uint256",
          "name": "contractID",
          "type": "uint256"
        }
      ],
      "name": "Requested",
      "type": "event"
    },
    {
      "anonymous": false,
      "inputs": [
        {
          "indexed": false,
          "internalType": "uint256",
          "name": "new_state",
          "type": "uint256"
        }
      ],
      "name": "StateChange",
      "type": "event"
    },
    {
      "inputs": [
        {
          "internalType": "uint256",
          "name": "contractID",
          "type": "uint256"
        },
        {
          "internalType": "bool",
          "name": "employee",
          "type": "bool"
        }
      ],
      "name": "BreakUp",
      "outputs": [],
      "stateMutability": "nonpayable",
      "type": "function"
    },
    {
      "inputs": [],
      "name": "_contractIDs",
      "outputs": [
        {
          "internalType": "uint256",
          "name": "_value",
          "type": "uint256"
        }
      ],
      "stateMutability": "view",
      "type": "function"
    },
    {
      "inputs": [
        {
          "internalType": "uint256",
          "name": "contractID",
          "type": "uint256"
        }
      ],
      "name": "acceptOffer",
      "outputs": [],
      "stateMutability": "payable",
      "type": "function"
    },
    {
      "inputs": [
        {
          "internalType": "uint256",
          "name": "contractID",
          "type": "uint256"
        }
      ],
      "name": "approve",
      "outputs": [],
      "stateMutability": "payable",
      "type": "function"
    },
    {
      "inputs": [
        {
          "internalType": "uint256",
          "name": "contractID",
          "type": "uint256"
        }
      ],
      "name": "breakOffer",
      "outputs": [],
      "stateMutability": "payable",
      "type": "function"
    },
    {
      "inputs": [
        {
          "internalType": "uint256",
          "name": "contractID",
          "type": "uint256"
        }
      ],
      "name": "contractDetails",
      "outputs": [
        {
          "components": [
            {
              "internalType": "address payable",
              "name": "employer",
              "type": "address"
            },
            {
              "internalType": "address payable",
              "name": "employee",
              "type": "address"
            },
            {
              "internalType": "uint256",
              "name": "salary",
              "type": "uint256"
            },
            {
              "internalType": "uint256",
              "name": "employer_lock",
              "type": "uint256"
            },
            {
              "internalType": "uint256",
              "name": "employee_lock",
              "type": "uint256"
            },
            {
              "internalType": "uint256",
              "name": "status",
              "type": "uint256"
            },
            {
              "internalType": "bool",
              "name": "employee_breakup",
              "type": "bool"
            },
            {
              "internalType": "bool",
              "name": "employer_breakup",
              "type": "bool"
            },
            {
              "internalType": "uint256",
              "name": "ID",
              "type": "uint256"
            }
          ],
          "internalType": "struct Escrow.Contract",
          "name": "",
          "type": "tuple"
        }
      ],
      "stateMutability": "view",
      "type": "function"
    },
    {
      "inputs": [
        {
          "internalType": "bool",
          "name": "employer",
          "type": "bool"
        }
      ],
      "name": "currentContract",
      "outputs": [
        {
          "components": [
            {
              "internalType": "address payable",
              "name": "employer",
              "type": "address"
            },
            {
              "internalType": "address payable",
              "name": "employee",
              "type": "address"
            },
            {
              "internalType": "uint256",
              "name": "salary",
              "type": "uint256"
            },
            {
              "internalType": "uint256",
              "name": "employer_lock",
              "type": "uint256"
            },
            {
              "internalType": "uint256",
              "name": "employee_lock",
              "type": "uint256"
            },
            {
              "internalType": "uint256",
              "name": "status",
              "type": "uint256"
            },
            {
              "internalType": "bool",
              "name": "employee_breakup",
              "type": "bool"
            },
            {
              "internalType": "bool",
              "name": "employer_breakup",
              "type": "bool"
            },
            {
              "internalType": "uint256",
              "name": "ID",
              "type": "uint256"
            }
          ],
          "internalType": "struct Escrow.Contract[]",
          "name": "",
          "type": "tuple[]"
        }
      ],
      "stateMutability": "view",
      "type": "function"
    },
    {
      "inputs": [
        {
          "internalType": "address payable",
          "name": "employer",
          "type": "address"
        },
        {
          "internalType": "address payable",
          "name": "employee",
          "type": "address"
        },
        {
          "internalType": "uint256",
          "name": "salary",
          "type": "uint256"
        },
        {
          "internalType": "uint256",
          "name": "employer_lock",
          "type": "uint256"
        },
        {
          "internalType": "uint256",
          "name": "employee_lock",
          "type": "uint256"
        }
      ],
      "name": "extendOffer",
      "outputs": [],
      "stateMutability": "payable",
      "type": "function"
    },
    {
      "inputs": [
        {
          "internalType": "uint256",
          "name": "contractID",
          "type": "uint256"
        }
      ],
      "name": "rescindOffer",
      "outputs": [],
      "stateMutability": "payable",
      "type": "function"
    }
  ],
  "bytecode": "0x608060405234801561001057600080fd5b506125c3806100206000396000f3fe6080604052600436106100865760003560e01c80636d61813a116100595780636d61813a1461012b57806375584a6b14610147578063b759f95414610184578063c815729d146101a0578063d03b8c17146101bc57610086565b80631ab5a7871461008b578063240c2dbb146100b65780633330a55f146100d2578063651923291461010f575b600080fd5b34801561009757600080fd5b506100a06101e5565b6040516100ad9190611d2a565b60405180910390f35b6100d060048036038101906100cb9190611d76565b6101f1565b005b3480156100de57600080fd5b506100f960048036038101906100f49190611d76565b610533565b6040516101069190611ec5565b60405180910390f35b61012960048036038101906101249190611f0d565b610783565b005b61014560048036038101906101409190611d76565b610a7c565b005b34801561015357600080fd5b5061016e60048036038101906101699190611fb4565b610d2a565b60405161017b9190612148565b60405180910390f35b61019e60048036038101906101999190611d76565b611231565b005b6101ba60048036038101906101b59190611d76565b61152e565b005b3480156101c857600080fd5b506101e360048036038101906101de919061216a565b611817565b005b60038060000154905081565b806101fc6003611c71565b1161020657600080fd5b6000806000838152602001908152602001600020604051806101200160405290816000820160009054906101000a900473ffffffffffffffffffffffffffffffffffffffff1673ffffffffffffffffffffffffffffffffffffffff1673ffffffffffffffffffffffffffffffffffffffff1681526020016001820160009054906101000a900473ffffffffffffffffffffffffffffffffffffffff1673ffffffffffffffffffffffffffffffffffffffff1673ffffffffffffffffffffffffffffffffffffffff168152602001600282015481526020016003820154815260200160048201548152602001600582015481526020016006820160009054906101000a900460ff161515151581526020016006820160019054906101000a900460ff161515151581526020016007820154815250509050600081606001511415610384576040517f08c379a000000000000000000000000000000000000000000000000000000000815260040161037b90612207565b60405180910390fd5b806000015173ffffffffffffffffffffffffffffffffffffffff163373ffffffffffffffffffffffffffffffffffffffff16146103f6576040517f08c379a00000000000000000000000000000000000000000000000000000000081526004016103ed90612273565b60405180910390fd5b60008160a001511461043d576040517f08c379a0000000000000000000000000000000000000000000000000000000008152600401610434906122df565b60405180910390fd5b60026000808481526020019081526020016000206005018190555060008160a00151146104b457806020015173ffffffffffffffffffffffffffffffffffffffff166108fc82608001519081150290604051600060405180830381858888f193505050501580156104b2573d6000803e3d6000fd5b505b806000015173ffffffffffffffffffffffffffffffffffffffff166108fc82604001519081150290604051600060405180830381858888f19350505050158015610502573d6000803e3d6000fd5b507f1afb0ae590df277bcb3a37f88612725bf1f7df4755792b1548a7efe77985ff7760405160405180910390a15050565b61053b611c95565b816105466003611c71565b1161055057600080fd5b6000806000848152602001908152602001600020604051806101200160405290816000820160009054906101000a900473ffffffffffffffffffffffffffffffffffffffff1673ffffffffffffffffffffffffffffffffffffffff1673ffffffffffffffffffffffffffffffffffffffff1681526020016001820160009054906101000a900473ffffffffffffffffffffffffffffffffffffffff1673ffffffffffffffffffffffffffffffffffffffff1673ffffffffffffffffffffffffffffffffffffffff168152602001600282015481526020016003820154815260200160048201548152602001600582015481526020016006820160009054906101000a900460ff161515151581526020016006820160019054906101000a900460ff1615151515815260200160078201548152505090506000816060015114156106ce576040517f08c379a00000000000000000000000000000000000000000000000000000000081526004016106c590612207565b60405180910390fd5b806000015173ffffffffffffffffffffffffffffffffffffffff163373ffffffffffffffffffffffffffffffffffffffff16148061073b5750806020015173ffffffffffffffffffffffffffffffffffffffff163373ffffffffffffffffffffffffffffffffffffffff16145b61077a576040517f08c379a000000000000000000000000000000000000000000000000000000000815260040161077190612273565b60405180910390fd5b80915050919050565b818361078f919061232e565b34146107d0576040517f08c379a00000000000000000000000000000000000000000000000000000000081526004016107c7906123d0565b60405180910390fd5b60006107dc6003611c71565b90506040518061012001604052808773ffffffffffffffffffffffffffffffffffffffff1681526020018673ffffffffffffffffffffffffffffffffffffffff168152602001858152602001848152602001838152602001600081526020016000151581526020016000151581526020018281525060008083815260200190815260200160002060008201518160000160006101000a81548173ffffffffffffffffffffffffffffffffffffffff021916908373ffffffffffffffffffffffffffffffffffffffff16021790555060208201518160010160006101000a81548173ffffffffffffffffffffffffffffffffffffffff021916908373ffffffffffffffffffffffffffffffffffffffff16021790555060408201518160020155606082015181600301556080820151816004015560a0820151816005015560c08201518160060160006101000a81548160ff02191690831515021790555060e08201518160060160016101000a81548160ff0219169083151502179055506101008201518160070155905050600160008773ffffffffffffffffffffffffffffffffffffffff1673ffffffffffffffffffffffffffffffffffffffff168152602001908152602001600020819080600181540180825580915050600190039060005260206000200160009091909190915055600260008673ffffffffffffffffffffffffffffffffffffffff1673ffffffffffffffffffffffffffffffffffffffff168152602001908152602001600020819080600181540180825580915050600190039060005260206000200160009091909190915055610a3d6003611c7f565b7f54593fbf3d0e13af724316e44a7387ee756ab753993496c7009658e83217002c81604051610a6c9190611d2a565b60405180910390a1505050505050565b80610a876003611c71565b11610a9157600080fd5b6000806000838152602001908152602001600020604051806101200160405290816000820160009054906101000a900473ffffffffffffffffffffffffffffffffffffffff1673ffffffffffffffffffffffffffffffffffffffff1673ffffffffffffffffffffffffffffffffffffffff1681526020016001820160009054906101000a900473ffffffffffffffffffffffffffffffffffffffff1673ffffffffffffffffffffffffffffffffffffffff1673ffffffffffffffffffffffffffffffffffffffff168152602001600282015481526020016003820154815260200160048201548152602001600582015481526020016006820160009054906101000a900460ff161515151581526020016006820160019054906101000a900460ff161515151581526020016007820154815250509050600081606001511415610c0f576040517f08c379a0000000000000000000000000000000000000000000000000000000008152600401610c0690612207565b60405180910390fd5b806020015173ffffffffffffffffffffffffffffffffffffffff163373ffffffffffffffffffffffffffffffffffffffff1614610c81576040517f08c379a0000000000000000000000000000000000000000000000000000000008152600401610c7890612273565b60405180910390fd5b600260008084815260200190815260200160002060050181905550806000015173ffffffffffffffffffffffffffffffffffffffff166108fc82604001518360600151610cce919061232e565b9081150290604051600060405180830381858888f19350505050158015610cf9573d6000803e3d6000fd5b507f1afb0ae590df277bcb3a37f88612725bf1f7df4755792b1548a7efe77985ff7760405160405180910390a15050565b60608115610fb1576000600160003373ffffffffffffffffffffffffffffffffffffffff1673ffffffffffffffffffffffffffffffffffffffff168152602001908152602001600020805480602002602001604051908101604052809291908181526020018280548015610dbd57602002820191906000526020600020905b815481526020019060010190808311610da9575b505050505090506000815167ffffffffffffffff811115610de157610de06123f0565b5b604051908082528060200260200182016040528015610e1a57816020015b610e07611c95565b815260200190600190039081610dff5790505b50905060005b8251811015610fa657600080848381518110610e3f57610e3e61241f565b5b60200260200101518152602001908152602001600020604051806101200160405290816000820160009054906101000a900473ffffffffffffffffffffffffffffffffffffffff1673ffffffffffffffffffffffffffffffffffffffff1673ffffffffffffffffffffffffffffffffffffffff1681526020016001820160009054906101000a900473ffffffffffffffffffffffffffffffffffffffff1673ffffffffffffffffffffffffffffffffffffffff1673ffffffffffffffffffffffffffffffffffffffff168152602001600282015481526020016003820154815260200160048201548152602001600582015481526020016006820160009054906101000a900460ff161515151581526020016006820160019054906101000a900460ff16151515158152602001600782015481525050828281518110610f8857610f8761241f565b5b60200260200101819052508080610f9e9061244e565b915050610e20565b50809250505061122c565b6000600260003373ffffffffffffffffffffffffffffffffffffffff1673ffffffffffffffffffffffffffffffffffffffff16815260200190815260200160002080548060200260200160405190810160405280929190818152602001828054801561103c57602002820191906000526020600020905b815481526020019060010190808311611028575b505050505090506000815167ffffffffffffffff8111156110605761105f6123f0565b5b60405190808252806020026020018201604052801561109957816020015b611086611c95565b81526020019060019003908161107e5790505b50905060005b8251811015611225576000808483815181106110be576110bd61241f565b5b60200260200101518152602001908152602001600020604051806101200160405290816000820160009054906101000a900473ffffffffffffffffffffffffffffffffffffffff1673ffffffffffffffffffffffffffffffffffffffff1673ffffffffffffffffffffffffffffffffffffffff1681526020016001820160009054906101000a900473ffffffffffffffffffffffffffffffffffffffff1673ffffffffffffffffffffffffffffffffffffffff1673ffffffffffffffffffffffffffffffffffffffff168152602001600282015481526020016003820154815260200160048201548152602001600582015481526020016006820160009054906101000a900460ff161515151581526020016006820160019054906101000a900460ff161515151581526020016007820154815250508282815181106112075761120661241f565b5b6020026020010181905250808061121d9061244e565b91505061109f565b5080925050505b919050565b8061123c6003611c71565b1161124657600080fd5b6000806000838152602001908152602001600020604051806101200160405290816000820160009054906101000a900473ffffffffffffffffffffffffffffffffffffffff1673ffffffffffffffffffffffffffffffffffffffff1673ffffffffffffffffffffffffffffffffffffffff1681526020016001820160009054906101000a900473ffffffffffffffffffffffffffffffffffffffff1673ffffffffffffffffffffffffffffffffffffffff1673ffffffffffffffffffffffffffffffffffffffff168152602001600282015481526020016003820154815260200160048201548152602001600582015481526020016006820160009054906101000a900460ff161515151581526020016006820160019054906101000a900460ff1615151515815260200160078201548152505090506000816060015114156113c4576040517f08c379a00000000000000000000000000000000000000000000000000000000081526004016113bb90612207565b60405180910390fd5b806000015173ffffffffffffffffffffffffffffffffffffffff163373ffffffffffffffffffffffffffffffffffffffff1614611436576040517f08c379a000000000000000000000000000000000000000000000000000000000815260040161142d90612273565b60405180910390fd5b806020015173ffffffffffffffffffffffffffffffffffffffff166108fc82604001518360800151611468919061232e565b9081150290604051600060405180830381858888f19350505050158015611493573d6000803e3d6000fd5b50806000015173ffffffffffffffffffffffffffffffffffffffff166108fc82606001519081150290604051600060405180830381858888f193505050501580156114e2573d6000803e3d6000fd5b506002600080848152602001908152602001600020600501819055507f5c6d99b925e59f63441daba754e2224432c4af1de928105c76c54be4efb5e2ba60405160405180910390a15050565b806115396003611c71565b1161154357600080fd5b6000806000838152602001908152602001600020604051806101200160405290816000820160009054906101000a900473ffffffffffffffffffffffffffffffffffffffff1673ffffffffffffffffffffffffffffffffffffffff1673ffffffffffffffffffffffffffffffffffffffff1681526020016001820160009054906101000a900473ffffffffffffffffffffffffffffffffffffffff1673ffffffffffffffffffffffffffffffffffffffff1673ffffffffffffffffffffffffffffffffffffffff168152602001600282015481526020016003820154815260200160048201548152602001600582015481526020016006820160009054906101000a900460ff161515151581526020016006820160019054906101000a900460ff1615151515815260200160078201548152505090506000816060015114156116c1576040517f08c379a00000000000000000000000000000000000000000000000000000000081526004016116b890612207565b60405180910390fd5b80608001513414611707576040517f08c379a00000000000000000000000000000000000000000000000000000000081526004016116fe906123d0565b60405180910390fd5b806020015173ffffffffffffffffffffffffffffffffffffffff163373ffffffffffffffffffffffffffffffffffffffff1614611779576040517f08c379a000000000000000000000000000000000000000000000000000000000815260040161177090612273565b60405180910390fd5b60008160a00151146117c0576040517f08c379a00000000000000000000000000000000000000000000000000000000081526004016117b7906124e3565b60405180910390fd5b6001600080848152602001908152602001600020600501819055507f49628ca47affc2c0364f092b96d5c6037157da8dd90c96c281f775bd576a45b9600160405161180b9190612548565b60405180910390a15050565b816118226003611c71565b1161182c57600080fd5b6000806000848152602001908152602001600020604051806101200160405290816000820160009054906101000a900473ffffffffffffffffffffffffffffffffffffffff1673ffffffffffffffffffffffffffffffffffffffff1673ffffffffffffffffffffffffffffffffffffffff1681526020016001820160009054906101000a900473ffffffffffffffffffffffffffffffffffffffff1673ffffffffffffffffffffffffffffffffffffffff1673ffffffffffffffffffffffffffffffffffffffff168152602001600282015481526020016003820154815260200160048201548152602001600582015481526020016006820160009054906101000a900460ff161515151581526020016006820160019054906101000a900460ff1615151515815260200160078201548152505090506000816060015114156119aa576040517f08c379a00000000000000000000000000000000000000000000000000000000081526004016119a190612207565b60405180910390fd5b8115611a5557806020015173ffffffffffffffffffffffffffffffffffffffff163373ffffffffffffffffffffffffffffffffffffffff1614611a22576040517f08c379a0000000000000000000000000000000000000000000000000000000008152600401611a1990612273565b60405180910390fd5b600160008085815260200190815260200160002060060160006101000a81548160ff021916908315150217905550611af6565b806000015173ffffffffffffffffffffffffffffffffffffffff163373ffffffffffffffffffffffffffffffffffffffff1614611ac7576040517f08c379a0000000000000000000000000000000000000000000000000000000008152600401611abe90612273565b60405180910390fd5b600160008085815260200190815260200160002060060160016101000a81548160ff0219169083151502179055505b60008084815260200190815260200160002060060160019054906101000a900460ff168015611b44575060008084815260200190815260200160002060060160009054906101000a900460ff165b15611c3357806000015173ffffffffffffffffffffffffffffffffffffffff166108fc82606001518360400151611b7b919061232e565b9081150290604051600060405180830381858888f19350505050158015611ba6573d6000803e3d6000fd5b50806020015173ffffffffffffffffffffffffffffffffffffffff166108fc82608001519081150290604051600060405180830381858888f19350505050158015611bf5573d6000803e3d6000fd5b507fcd16cf9be9766c146c7a9c6f015c6fb2260ef6b6d14c8871cf5b3c772df670966000604051611c269190612572565b60405180910390a1611c6c565b7fcd16cf9be9766c146c7a9c6f015c6fb2260ef6b6d14c8871cf5b3c772df670966001604051611c639190612572565b60405180910390a15b505050565b600081600001549050919050565b6001816000016000828254019250508190555050565b604051806101200160405280600073ffffffffffffffffffffffffffffffffffffffff168152602001600073ffffffffffffffffffffffffffffffffffffffff16815260200160008152602001600081526020016000815260200160008152602001600015158152602001600015158152602001600081525090565b6000819050919050565b611d2481611d11565b82525050565b6000602082019050611d3f6000830184611d1b565b92915050565b600080fd5b611d5381611d11565b8114611d5e57600080fd5b50565b600081359050611d7081611d4a565b92915050565b600060208284031215611d8c57611d8b611d45565b5b6000611d9a84828501611d61565b91505092915050565b600073ffffffffffffffffffffffffffffffffffffffff82169050919050565b6000611dce82611da3565b9050919050565b611dde81611dc3565b82525050565b611ded81611d11565b82525050565b60008115159050919050565b611e0881611df3565b82525050565b61012082016000820151611e256000850182611dd5565b506020820151611e386020850182611dd5565b506040820151611e4b6040850182611de4565b506060820151611e5e6060850182611de4565b506080820151611e716080850182611de4565b5060a0820151611e8460a0850182611de4565b5060c0820151611e9760c0850182611dff565b5060e0820151611eaa60e0850182611dff565b50610100820151611ebf610100850182611de4565b50505050565b600061012082019050611edb6000830184611e0e565b92915050565b611eea81611dc3565b8114611ef557600080fd5b50565b600081359050611f0781611ee1565b92915050565b600080600080600060a08688031215611f2957611f28611d45565b5b6000611f3788828901611ef8565b9550506020611f4888828901611ef8565b9450506040611f5988828901611d61565b9350506060611f6a88828901611d61565b9250506080611f7b88828901611d61565b9150509295509295909350565b611f9181611df3565b8114611f9c57600080fd5b50565b600081359050611fae81611f88565b92915050565b600060208284031215611fca57611fc9611d45565b5b6000611fd884828501611f9f565b91505092915050565b600081519050919050565b600082825260208201905092915050565b6000819050602082019050919050565b610120820160008201516120246000850182611dd5565b5060208201516120376020850182611dd5565b50604082015161204a6040850182611de4565b50606082015161205d6060850182611de4565b5060808201516120706080850182611de4565b5060a082015161208360a0850182611de4565b5060c082015161209660c0850182611dff565b5060e08201516120a960e0850182611dff565b506101008201516120be610100850182611de4565b50505050565b60006120d0838361200d565b6101208301905092915050565b6000602082019050919050565b60006120f582611fe1565b6120ff8185611fec565b935061210a83611ffd565b8060005b8381101561213b57815161212288826120c4565b975061212d836120dd565b92505060018101905061210e565b5085935050505092915050565b6000602082019050818103600083015261216281846120ea565b905092915050565b6000806040838503121561218157612180611d45565b5b600061218f85828601611d61565b92505060206121a085828601611f9f565b9150509250929050565b600082825260208201905092915050565b7f496e76616c696420436f6e747261637400000000000000000000000000000000600082015250565b60006121f16010836121aa565b91506121fc826121bb565b602082019050919050565b60006020820190508181036000830152612220816121e4565b9050919050565b7f6e6f7420796f75722070726f6a65637400000000000000000000000000000000600082015250565b600061225d6010836121aa565b915061226882612227565b602082019050919050565b6000602082019050818103600083015261228c81612250565b9050919050565b7f746f6f206c617465000000000000000000000000000000000000000000000000600082015250565b60006122c96008836121aa565b91506122d482612293565b602082019050919050565b600060208201905081810360008301526122f8816122bc565b9050919050565b7f4e487b7100000000000000000000000000000000000000000000000000000000600052601160045260246000fd5b600061233982611d11565b915061234483611d11565b9250827fffffffffffffffffffffffffffffffffffffffffffffffffffffffffffffffff03821115612379576123786122ff565b5b828201905092915050565b7f77726f6e6720616d6f756e74206f66206d6f6e65790000000000000000000000600082015250565b60006123ba6015836121aa565b91506123c582612384565b602082019050919050565b600060208201905081810360008301526123e9816123ad565b9050919050565b7f4e487b7100000000000000000000000000000000000000000000000000000000600052604160045260246000fd5b7f4e487b7100000000000000000000000000000000000000000000000000000000600052603260045260246000fd5b600061245982611d11565b91507fffffffffffffffffffffffffffffffffffffffffffffffffffffffffffffffff82141561248c5761248b6122ff565b5b600182019050919050565b7f616c726561647920616363657074656400000000000000000000000000000000600082015250565b60006124cd6010836121aa565b91506124d882612497565b602082019050919050565b600060208201905081810360008301526124fc816124c0565b9050919050565b6000819050919050565b6000819050919050565b600061253261252d61252884612503565b61250d565b611d11565b9050919050565b61254281612517565b82525050565b600060208201905061255d6000830184612539565b92915050565b61256c81611df3565b82525050565b60006020820190506125876000830184612563565b9291505056fea26469706673582212204404fac0602e67318e5158bbd1b52d8e273b891747d2f666e91c6ec03bd4ed7164736f6c63430008090033",
  "linkReferences": {},
  "deployedLinkReferences": {}
}