{
  "_format": "hh-sol-artifact-1",
  "contractName": "Escrow",
  "sourceName": "contracts/Escrow.sol",
  "abi": [
    {
      "inputs": [],
      "stateMutability": "nonpayable",
      "type": "constructor"
    },
    {
      "anonymous": false,
      "inputs": [],
      "name": "Approve",
      "type": "event"
    },
    {
      "anonymous": false,
      "inputs": [
        {
          "indexed": false,
          "internalType": "bool",
          "name": "requested",
          "type": "bool"
        }
      ],
      "name": "BreakUpEvent",
      "type": "event"
    },
    {
      "anonymous": false,
      "inputs": [],
      "name": "Canceled",
      "type": "event"
    },
    {
      "anonymous": false,
      "inputs": [
        {
          "indexed": false,
          "internalType": "uint256",
          "name": "contractID",
          "type": "uint256"
        }
      ],
      "name": "Requested",
      "type": "event"
    },
    {
      "anonymous": false,
      "inputs": [
        {
          "indexed": false,
          "internalType": "uint256",
          "name": "new_state",
          "type": "uint256"
        }
      ],
      "name": "StateChange",
      "type": "event"
    },
    {
      "inputs": [
        {
          "internalType": "uint256",
          "name": "contractID",
          "type": "uint256"
        },
        {
          "internalType": "bool",
          "name": "employee",
          "type": "bool"
        }
      ],
      "name": "BreakUp",
      "outputs": [],
      "stateMutability": "nonpayable",
      "type": "function"
    },
    {
      "inputs": [],
      "name": "_contractIDs",
      "outputs": [
        {
          "internalType": "uint256",
          "name": "_value",
          "type": "uint256"
        }
      ],
      "stateMutability": "view",
      "type": "function"
    },
    {
      "inputs": [
        {
          "internalType": "uint256",
          "name": "contractID",
          "type": "uint256"
        }
      ],
      "name": "acceptOffer",
      "outputs": [],
      "stateMutability": "payable",
      "type": "function"
    },
    {
      "inputs": [
        {
          "internalType": "uint256",
          "name": "contractID",
          "type": "uint256"
        }
      ],
      "name": "approve",
      "outputs": [],
      "stateMutability": "payable",
      "type": "function"
    },
    {
      "inputs": [
        {
          "internalType": "uint256",
          "name": "contractID",
          "type": "uint256"
        }
      ],
      "name": "breakOffer",
      "outputs": [],
      "stateMutability": "payable",
      "type": "function"
    },
    {
      "inputs": [
        {
          "internalType": "uint256",
          "name": "contractID",
          "type": "uint256"
        }
      ],
      "name": "contractDetails",
      "outputs": [
        {
          "components": [
            {
              "internalType": "address payable",
              "name": "employer",
              "type": "address"
            },
            {
              "internalType": "address payable",
              "name": "employee",
              "type": "address"
            },
            {
              "internalType": "uint256",
              "name": "salary",
              "type": "uint256"
            },
            {
              "internalType": "uint256",
              "name": "employer_lock",
              "type": "uint256"
            },
            {
              "internalType": "uint256",
              "name": "employee_lock",
              "type": "uint256"
            },
            {
              "internalType": "uint256",
              "name": "status",
              "type": "uint256"
            },
            {
              "internalType": "bool",
              "name": "employee_breakup",
              "type": "bool"
            },
            {
              "internalType": "bool",
              "name": "employer_breakup",
              "type": "bool"
            }
          ],
          "internalType": "struct Escrow.Contract",
          "name": "",
          "type": "tuple"
        }
      ],
      "stateMutability": "view",
      "type": "function"
    },
    {
      "inputs": [
        {
          "internalType": "bool",
          "name": "employer",
          "type": "bool"
        }
      ],
      "name": "currentContract",
      "outputs": [
        {
          "components": [
            {
              "internalType": "address payable",
              "name": "employer",
              "type": "address"
            },
            {
              "internalType": "address payable",
              "name": "employee",
              "type": "address"
            },
            {
              "internalType": "uint256",
              "name": "salary",
              "type": "uint256"
            },
            {
              "internalType": "uint256",
              "name": "employer_lock",
              "type": "uint256"
            },
            {
              "internalType": "uint256",
              "name": "employee_lock",
              "type": "uint256"
            },
            {
              "internalType": "uint256",
              "name": "status",
              "type": "uint256"
            },
            {
              "internalType": "bool",
              "name": "employee_breakup",
              "type": "bool"
            },
            {
              "internalType": "bool",
              "name": "employer_breakup",
              "type": "bool"
            }
          ],
          "internalType": "struct Escrow.Contract[]",
          "name": "",
          "type": "tuple[]"
        }
      ],
      "stateMutability": "view",
      "type": "function"
    },
    {
      "inputs": [
        {
          "internalType": "address payable",
          "name": "employer",
          "type": "address"
        },
        {
          "internalType": "address payable",
          "name": "employee",
          "type": "address"
        },
        {
          "internalType": "uint256",
          "name": "salary",
          "type": "uint256"
        },
        {
          "internalType": "uint256",
          "name": "employer_lock",
          "type": "uint256"
        },
        {
          "internalType": "uint256",
          "name": "employee_lock",
          "type": "uint256"
        }
      ],
      "name": "extendOffer",
      "outputs": [],
      "stateMutability": "payable",
      "type": "function"
    },
    {
      "inputs": [
        {
          "internalType": "uint256",
          "name": "contractID",
          "type": "uint256"
        }
      ],
      "name": "rescindOffer",
      "outputs": [],
      "stateMutability": "payable",
      "type": "function"
    }
  ],
  "bytecode": "0x608060405234801561001057600080fd5b506122ae806100206000396000f3fe6080604052600436106100865760003560e01c80636d61813a116100595780636d61813a1461012b57806375584a6b14610147578063b759f95414610184578063c815729d146101a0578063d03b8c17146101bc57610086565b80631ab5a7871461008b578063240c2dbb146100b65780633330a55f146100d2578063651923291461010f575b600080fd5b34801561009757600080fd5b506100a06101e5565b6040516100ad9190611a3f565b60405180910390f35b6100d060048036038101906100cb9190611a8b565b6101f1565b005b3480156100de57600080fd5b506100f960048036038101906100f49190611a8b565b610514565b6040516101069190611bc5565b60405180910390f35b61012960048036038101906101249190611c0d565b610745565b005b61014560048036038101906101409190611a8b565b610a23565b005b34801561015357600080fd5b5061016e60048036038101906101699190611cb4565b610cb2565b60405161017b9190611e33565b60405180910390f35b61019e60048036038101906101999190611a8b565b610fc0565b005b6101ba60048036038101906101b59190611a8b565b61129e565b005b3480156101c857600080fd5b506101e360048036038101906101de9190611e55565b611568565b005b60038060000154905081565b6000806000838152602001908152602001600020604051806101000160405290816000820160009054906101000a900473ffffffffffffffffffffffffffffffffffffffff1673ffffffffffffffffffffffffffffffffffffffff1673ffffffffffffffffffffffffffffffffffffffff1681526020016001820160009054906101000a900473ffffffffffffffffffffffffffffffffffffffff1673ffffffffffffffffffffffffffffffffffffffff1673ffffffffffffffffffffffffffffffffffffffff168152602001600282015481526020016003820154815260200160048201548152602001600582015481526020016006820160009054906101000a900460ff161515151581526020016006820160019054906101000a900460ff1615151515815250509050600081606001511415610365576040517f08c379a000000000000000000000000000000000000000000000000000000000815260040161035c90611ef2565b60405180910390fd5b806000015173ffffffffffffffffffffffffffffffffffffffff163373ffffffffffffffffffffffffffffffffffffffff16146103d7576040517f08c379a00000000000000000000000000000000000000000000000000000000081526004016103ce90611f5e565b60405180910390fd5b60008160a001511461041e576040517f08c379a000000000000000000000000000000000000000000000000000000000815260040161041590611fca565b60405180910390fd5b60026000808481526020019081526020016000206005018190555060008160a001511461049557806020015173ffffffffffffffffffffffffffffffffffffffff166108fc82608001519081150290604051600060405180830381858888f19350505050158015610493573d6000803e3d6000fd5b505b806000015173ffffffffffffffffffffffffffffffffffffffff166108fc82604001519081150290604051600060405180830381858888f193505050501580156104e3573d6000803e3d6000fd5b507f1afb0ae590df277bcb3a37f88612725bf1f7df4755792b1548a7efe77985ff7760405160405180910390a15050565b61051c6119b1565b6000806000848152602001908152602001600020604051806101000160405290816000820160009054906101000a900473ffffffffffffffffffffffffffffffffffffffff1673ffffffffffffffffffffffffffffffffffffffff1673ffffffffffffffffffffffffffffffffffffffff1681526020016001820160009054906101000a900473ffffffffffffffffffffffffffffffffffffffff1673ffffffffffffffffffffffffffffffffffffffff1673ffffffffffffffffffffffffffffffffffffffff168152602001600282015481526020016003820154815260200160048201548152602001600582015481526020016006820160009054906101000a900460ff161515151581526020016006820160019054906101000a900460ff1615151515815250509050600081606001511415610690576040517f08c379a000000000000000000000000000000000000000000000000000000000815260040161068790611ef2565b60405180910390fd5b806000015173ffffffffffffffffffffffffffffffffffffffff163373ffffffffffffffffffffffffffffffffffffffff1614806106fd5750806020015173ffffffffffffffffffffffffffffffffffffffff163373ffffffffffffffffffffffffffffffffffffffff16145b61073c576040517f08c379a000000000000000000000000000000000000000000000000000000000815260040161073390611f5e565b60405180910390fd5b80915050919050565b81836107519190612019565b3414610792576040517f08c379a0000000000000000000000000000000000000000000000000000000008152600401610789906120bb565b60405180910390fd5b600061079e60036119a3565b90506040518061010001604052808773ffffffffffffffffffffffffffffffffffffffff1681526020018673ffffffffffffffffffffffffffffffffffffffff168152602001858152602001848152602001838152602001600081526020016000151581526020016000151581525060008083815260200190815260200160002060008201518160000160006101000a81548173ffffffffffffffffffffffffffffffffffffffff021916908373ffffffffffffffffffffffffffffffffffffffff16021790555060208201518160010160006101000a81548173ffffffffffffffffffffffffffffffffffffffff021916908373ffffffffffffffffffffffffffffffffffffffff16021790555060408201518160020155606082015181600301556080820151816004015560a0820151816005015560c08201518160060160006101000a81548160ff02191690831515021790555060e08201518160060160016101000a81548160ff021916908315150217905550905050600160008773ffffffffffffffffffffffffffffffffffffffff1673ffffffffffffffffffffffffffffffffffffffff168152602001908152602001600020819080600181540180825580915050600190039060005260206000200160009091909190915055600260008673ffffffffffffffffffffffffffffffffffffffff1673ffffffffffffffffffffffffffffffffffffffff1681526020019081526020016000208190806001815401808255809150506001900390600052602060002001600090919091909150557f54593fbf3d0e13af724316e44a7387ee756ab753993496c7009658e83217002c81604051610a139190611a3f565b60405180910390a1505050505050565b6000806000838152602001908152602001600020604051806101000160405290816000820160009054906101000a900473ffffffffffffffffffffffffffffffffffffffff1673ffffffffffffffffffffffffffffffffffffffff1673ffffffffffffffffffffffffffffffffffffffff1681526020016001820160009054906101000a900473ffffffffffffffffffffffffffffffffffffffff1673ffffffffffffffffffffffffffffffffffffffff1673ffffffffffffffffffffffffffffffffffffffff168152602001600282015481526020016003820154815260200160048201548152602001600582015481526020016006820160009054906101000a900460ff161515151581526020016006820160019054906101000a900460ff1615151515815250509050600081606001511415610b97576040517f08c379a0000000000000000000000000000000000000000000000000000000008152600401610b8e90611ef2565b60405180910390fd5b806020015173ffffffffffffffffffffffffffffffffffffffff163373ffffffffffffffffffffffffffffffffffffffff1614610c09576040517f08c379a0000000000000000000000000000000000000000000000000000000008152600401610c0090611f5e565b60405180910390fd5b600260008084815260200190815260200160002060050181905550806000015173ffffffffffffffffffffffffffffffffffffffff166108fc82604001518360600151610c569190612019565b9081150290604051600060405180830381858888f19350505050158015610c81573d6000803e3d6000fd5b507f1afb0ae590df277bcb3a37f88612725bf1f7df4755792b1548a7efe77985ff7760405160405180910390a15050565b60606000600260003373ffffffffffffffffffffffffffffffffffffffff1673ffffffffffffffffffffffffffffffffffffffff168152602001908152602001600020805480602002602001604051908101604052809291908181526020018280548015610d3f57602002820191906000526020600020905b815481526020019060010190808311610d2b575b505050505090508215610ddd57600160003373ffffffffffffffffffffffffffffffffffffffff1673ffffffffffffffffffffffffffffffffffffffff168152602001908152602001600020805480602002602001604051908101604052809291908181526020018280548015610dd557602002820191906000526020600020905b815481526020019060010190808311610dc1575b505050505090505b6000815167ffffffffffffffff811115610dfa57610df96120db565b5b604051908082528060200260200182016040528015610e3357816020015b610e206119b1565b815260200190600190039081610e185790505b50905060005b8251811015610fb557600080848381518110610e5857610e5761210a565b5b60200260200101518152602001908152602001600020604051806101000160405290816000820160009054906101000a900473ffffffffffffffffffffffffffffffffffffffff1673ffffffffffffffffffffffffffffffffffffffff1673ffffffffffffffffffffffffffffffffffffffff1681526020016001820160009054906101000a900473ffffffffffffffffffffffffffffffffffffffff1673ffffffffffffffffffffffffffffffffffffffff1673ffffffffffffffffffffffffffffffffffffffff168152602001600282015481526020016003820154815260200160048201548152602001600582015481526020016006820160009054906101000a900460ff161515151581526020016006820160019054906101000a900460ff161515151581525050828281518110610f9757610f9661210a565b5b60200260200101819052508080610fad90612139565b915050610e39565b508092505050919050565b6000806000838152602001908152602001600020604051806101000160405290816000820160009054906101000a900473ffffffffffffffffffffffffffffffffffffffff1673ffffffffffffffffffffffffffffffffffffffff1673ffffffffffffffffffffffffffffffffffffffff1681526020016001820160009054906101000a900473ffffffffffffffffffffffffffffffffffffffff1673ffffffffffffffffffffffffffffffffffffffff1673ffffffffffffffffffffffffffffffffffffffff168152602001600282015481526020016003820154815260200160048201548152602001600582015481526020016006820160009054906101000a900460ff161515151581526020016006820160019054906101000a900460ff1615151515815250509050600081606001511415611134576040517f08c379a000000000000000000000000000000000000000000000000000000000815260040161112b90611ef2565b60405180910390fd5b806000015173ffffffffffffffffffffffffffffffffffffffff163373ffffffffffffffffffffffffffffffffffffffff16146111a6576040517f08c379a000000000000000000000000000000000000000000000000000000000815260040161119d90611f5e565b60405180910390fd5b806020015173ffffffffffffffffffffffffffffffffffffffff166108fc826040015183608001516111d89190612019565b9081150290604051600060405180830381858888f19350505050158015611203573d6000803e3d6000fd5b50806000015173ffffffffffffffffffffffffffffffffffffffff166108fc82606001519081150290604051600060405180830381858888f19350505050158015611252573d6000803e3d6000fd5b506002600080848152602001908152602001600020600501819055507f5c6d99b925e59f63441daba754e2224432c4af1de928105c76c54be4efb5e2ba60405160405180910390a15050565b6000806000838152602001908152602001600020604051806101000160405290816000820160009054906101000a900473ffffffffffffffffffffffffffffffffffffffff1673ffffffffffffffffffffffffffffffffffffffff1673ffffffffffffffffffffffffffffffffffffffff1681526020016001820160009054906101000a900473ffffffffffffffffffffffffffffffffffffffff1673ffffffffffffffffffffffffffffffffffffffff1673ffffffffffffffffffffffffffffffffffffffff168152602001600282015481526020016003820154815260200160048201548152602001600582015481526020016006820160009054906101000a900460ff161515151581526020016006820160019054906101000a900460ff1615151515815250509050600081606001511415611412576040517f08c379a000000000000000000000000000000000000000000000000000000000815260040161140990611ef2565b60405180910390fd5b80608001513414611458576040517f08c379a000000000000000000000000000000000000000000000000000000000815260040161144f906120bb565b60405180910390fd5b806020015173ffffffffffffffffffffffffffffffffffffffff163373ffffffffffffffffffffffffffffffffffffffff16146114ca576040517f08c379a00000000000000000000000000000000000000000000000000000000081526004016114c190611f5e565b60405180910390fd5b60008160a0015114611511576040517f08c379a0000000000000000000000000000000000000000000000000000000008152600401611508906121ce565b60405180910390fd5b6001600080848152602001908152602001600020600501819055507f49628ca47affc2c0364f092b96d5c6037157da8dd90c96c281f775bd576a45b9600160405161155c9190612233565b60405180910390a15050565b6000806000848152602001908152602001600020604051806101000160405290816000820160009054906101000a900473ffffffffffffffffffffffffffffffffffffffff1673ffffffffffffffffffffffffffffffffffffffff1673ffffffffffffffffffffffffffffffffffffffff1681526020016001820160009054906101000a900473ffffffffffffffffffffffffffffffffffffffff1673ffffffffffffffffffffffffffffffffffffffff1673ffffffffffffffffffffffffffffffffffffffff168152602001600282015481526020016003820154815260200160048201548152602001600582015481526020016006820160009054906101000a900460ff161515151581526020016006820160019054906101000a900460ff16151515158152505090506000816060015114156116dc576040517f08c379a00000000000000000000000000000000000000000000000000000000081526004016116d390611ef2565b60405180910390fd5b811561178757806020015173ffffffffffffffffffffffffffffffffffffffff163373ffffffffffffffffffffffffffffffffffffffff1614611754576040517f08c379a000000000000000000000000000000000000000000000000000000000815260040161174b90611f5e565b60405180910390fd5b600160008085815260200190815260200160002060060160006101000a81548160ff021916908315150217905550611828565b806000015173ffffffffffffffffffffffffffffffffffffffff163373ffffffffffffffffffffffffffffffffffffffff16146117f9576040517f08c379a00000000000000000000000000000000000000000000000000000000081526004016117f090611f5e565b60405180910390fd5b600160008085815260200190815260200160002060060160016101000a81548160ff0219169083151502179055505b60008084815260200190815260200160002060060160019054906101000a900460ff168015611876575060008084815260200190815260200160002060060160009054906101000a900460ff165b1561196557806000015173ffffffffffffffffffffffffffffffffffffffff166108fc826060015183604001516118ad9190612019565b9081150290604051600060405180830381858888f193505050501580156118d8573d6000803e3d6000fd5b50806020015173ffffffffffffffffffffffffffffffffffffffff166108fc82608001519081150290604051600060405180830381858888f19350505050158015611927573d6000803e3d6000fd5b507fcd16cf9be9766c146c7a9c6f015c6fb2260ef6b6d14c8871cf5b3c772df670966000604051611958919061225d565b60405180910390a161199e565b7fcd16cf9be9766c146c7a9c6f015c6fb2260ef6b6d14c8871cf5b3c772df670966001604051611995919061225d565b60405180910390a15b505050565b600081600001549050919050565b604051806101000160405280600073ffffffffffffffffffffffffffffffffffffffff168152602001600073ffffffffffffffffffffffffffffffffffffffff168152602001600081526020016000815260200160008152602001600081526020016000151581526020016000151581525090565b6000819050919050565b611a3981611a26565b82525050565b6000602082019050611a546000830184611a30565b92915050565b600080fd5b611a6881611a26565b8114611a7357600080fd5b50565b600081359050611a8581611a5f565b92915050565b600060208284031215611aa157611aa0611a5a565b5b6000611aaf84828501611a76565b91505092915050565b600073ffffffffffffffffffffffffffffffffffffffff82169050919050565b6000611ae382611ab8565b9050919050565b611af381611ad8565b82525050565b611b0281611a26565b82525050565b60008115159050919050565b611b1d81611b08565b82525050565b61010082016000820151611b3a6000850182611aea565b506020820151611b4d6020850182611aea565b506040820151611b606040850182611af9565b506060820151611b736060850182611af9565b506080820151611b866080850182611af9565b5060a0820151611b9960a0850182611af9565b5060c0820151611bac60c0850182611b14565b5060e0820151611bbf60e0850182611b14565b50505050565b600061010082019050611bdb6000830184611b23565b92915050565b611bea81611ad8565b8114611bf557600080fd5b50565b600081359050611c0781611be1565b92915050565b600080600080600060a08688031215611c2957611c28611a5a565b5b6000611c3788828901611bf8565b9550506020611c4888828901611bf8565b9450506040611c5988828901611a76565b9350506060611c6a88828901611a76565b9250506080611c7b88828901611a76565b9150509295509295909350565b611c9181611b08565b8114611c9c57600080fd5b50565b600081359050611cae81611c88565b92915050565b600060208284031215611cca57611cc9611a5a565b5b6000611cd884828501611c9f565b91505092915050565b600081519050919050565b600082825260208201905092915050565b6000819050602082019050919050565b61010082016000820151611d246000850182611aea565b506020820151611d376020850182611aea565b506040820151611d4a6040850182611af9565b506060820151611d5d6060850182611af9565b506080820151611d706080850182611af9565b5060a0820151611d8360a0850182611af9565b5060c0820151611d9660c0850182611b14565b5060e0820151611da960e0850182611b14565b50505050565b6000611dbb8383611d0d565b6101008301905092915050565b6000602082019050919050565b6000611de082611ce1565b611dea8185611cec565b9350611df583611cfd565b8060005b83811015611e26578151611e0d8882611daf565b9750611e1883611dc8565b925050600181019050611df9565b5085935050505092915050565b60006020820190508181036000830152611e4d8184611dd5565b905092915050565b60008060408385031215611e6c57611e6b611a5a565b5b6000611e7a85828601611a76565b9250506020611e8b85828601611c9f565b9150509250929050565b600082825260208201905092915050565b7f496e76616c696420436f6e747261637400000000000000000000000000000000600082015250565b6000611edc601083611e95565b9150611ee782611ea6565b602082019050919050565b60006020820190508181036000830152611f0b81611ecf565b9050919050565b7f6e6f7420796f75722070726f6a65637400000000000000000000000000000000600082015250565b6000611f48601083611e95565b9150611f5382611f12565b602082019050919050565b60006020820190508181036000830152611f7781611f3b565b9050919050565b7f746f6f206c617465000000000000000000000000000000000000000000000000600082015250565b6000611fb4600883611e95565b9150611fbf82611f7e565b602082019050919050565b60006020820190508181036000830152611fe381611fa7565b9050919050565b7f4e487b7100000000000000000000000000000000000000000000000000000000600052601160045260246000fd5b600061202482611a26565b915061202f83611a26565b9250827fffffffffffffffffffffffffffffffffffffffffffffffffffffffffffffffff0382111561206457612063611fea565b5b828201905092915050565b7f77726f6e6720616d6f756e74206f66206d6f6e65790000000000000000000000600082015250565b60006120a5601583611e95565b91506120b08261206f565b602082019050919050565b600060208201905081810360008301526120d481612098565b9050919050565b7f4e487b7100000000000000000000000000000000000000000000000000000000600052604160045260246000fd5b7f4e487b7100000000000000000000000000000000000000000000000000000000600052603260045260246000fd5b600061214482611a26565b91507fffffffffffffffffffffffffffffffffffffffffffffffffffffffffffffffff82141561217757612176611fea565b5b600182019050919050565b7f616c726561647920616363657074656400000000000000000000000000000000600082015250565b60006121b8601083611e95565b91506121c382612182565b602082019050919050565b600060208201905081810360008301526121e7816121ab565b9050919050565b6000819050919050565b6000819050919050565b600061221d612218612213846121ee565b6121f8565b611a26565b9050919050565b61222d81612202565b82525050565b60006020820190506122486000830184612224565b92915050565b61225781611b08565b82525050565b6000602082019050612272600083018461224e565b9291505056fea26469706673582212203c1548f84379832b52685b4748a667080c4de2d91d11a9a7d3628bad62daff3c64736f6c63430008090033",
  "linkReferences": {},
  "deployedLinkReferences": {}
}